{
  "_format": "hh-sol-artifact-1",
  "contractName": "FileRegistry",
  "sourceName": "contracts/FileRegistry.sol",
  "abi": [
    {
      "anonymous": false,
      "inputs": [
        {
          "indexed": true,
          "internalType": "uint256",
          "name": "fileId",
          "type": "uint256"
        },
        {
          "indexed": true,
          "internalType": "address",
          "name": "owner",
          "type": "address"
        },
        {
          "indexed": false,
          "internalType": "string",
          "name": "fileName",
          "type": "string"
        },
        {
          "indexed": false,
          "internalType": "string",
          "name": "cid1",
          "type": "string"
        },
        {
          "indexed": false,
          "internalType": "string",
          "name": "cid2",
          "type": "string"
        },
        {
          "indexed": false,
          "internalType": "string",
          "name": "cid3",
          "type": "string"
        },
        {
          "indexed": false,
          "internalType": "uint256",
          "name": "timestamp",
          "type": "uint256"
        }
      ],
      "name": "FileUploaded",
      "type": "event"
    },
    {
      "inputs": [
        {
          "internalType": "uint256",
          "name": "",
          "type": "uint256"
        }
      ],
      "name": "files",
      "outputs": [
        {
          "internalType": "string",
          "name": "fileName",
          "type": "string"
        },
        {
          "internalType": "string",
          "name": "cid1",
          "type": "string"
        },
        {
          "internalType": "string",
          "name": "cid2",
          "type": "string"
        },
        {
          "internalType": "string",
          "name": "cid3",
          "type": "string"
        },
        {
          "internalType": "address",
          "name": "owner",
          "type": "address"
        },
        {
          "internalType": "uint256",
          "name": "timestamp",
          "type": "uint256"
        }
      ],
      "stateMutability": "view",
      "type": "function"
    },
    {
      "inputs": [],
      "name": "getAllFiles",
      "outputs": [
        {
          "internalType": "string[]",
          "name": "fileNames",
          "type": "string[]"
        },
        {
          "internalType": "string[]",
          "name": "cid1s",
          "type": "string[]"
        },
        {
          "internalType": "string[]",
          "name": "cid2s",
          "type": "string[]"
        },
        {
          "internalType": "string[]",
          "name": "cid3s",
          "type": "string[]"
        },
        {
          "internalType": "address[]",
          "name": "owners",
          "type": "address[]"
        },
        {
          "internalType": "uint256[]",
          "name": "timestamps",
          "type": "uint256[]"
        }
      ],
      "stateMutability": "view",
      "type": "function"
    },
    {
      "inputs": [
        {
          "internalType": "uint256",
          "name": "index",
          "type": "uint256"
        }
      ],
      "name": "getFile",
      "outputs": [
        {
          "internalType": "string",
          "name": "fileName",
          "type": "string"
        },
        {
          "internalType": "string",
          "name": "cid1",
          "type": "string"
        },
        {
          "internalType": "string",
          "name": "cid2",
          "type": "string"
        },
        {
          "internalType": "string",
          "name": "cid3",
          "type": "string"
        },
        {
          "internalType": "address",
          "name": "owner",
          "type": "address"
        },
        {
          "internalType": "uint256",
          "name": "timestamp",
          "type": "uint256"
        }
      ],
      "stateMutability": "view",
      "type": "function"
    },
    {
      "inputs": [],
      "name": "getFilesCount",
      "outputs": [
        {
          "internalType": "uint256",
          "name": "",
          "type": "uint256"
        }
      ],
      "stateMutability": "view",
      "type": "function"
    },
    {
      "inputs": [
        {
          "internalType": "string",
          "name": "fileName",
          "type": "string"
        },
        {
          "internalType": "string",
          "name": "cid1",
          "type": "string"
        },
        {
          "internalType": "string",
          "name": "cid2",
          "type": "string"
        },
        {
          "internalType": "string",
          "name": "cid3",
          "type": "string"
        }
      ],
      "name": "storeFile",
      "outputs": [],
      "stateMutability": "nonpayable",
      "type": "function"
    }
  ],
  "bytecode": "0x6080604052348015600f57600080fd5b506119388061001f6000396000f3fe608060405234801561001057600080fd5b50600436106100575760003560e01c80632bfda3131461005c578063a3322a1214610091578063e8dc408e146100af578063f4c714b4146100cb578063ff24b5d514610100575b600080fd5b61007660048036038101906100719190610df3565b610123565b60405161008896959493929190610f00565b60405180910390f35b610099610418565b6040516100a69190610f7d565b60405180910390f35b6100c960048036038101906100c491906110cd565b610424565b005b6100e560048036038101906100e09190610df3565b6105ab565b6040516100f796959493929190610f00565b60405180910390f35b610108610837565b60405161011a9695949392919061142c565b60405180910390f35b6060806060806000806000805490508710610173576040517f08c379a000000000000000000000000000000000000000000000000000000000815260040161016a90611503565b60405180910390fd5b600080888154811061018857610187611523565b5b90600052602060002090600602019050806000018160010182600201836003018460040160009054906101000a900473ffffffffffffffffffffffffffffffffffffffff1685600501548580546101de90611581565b80601f016020809104026020016040519081016040528092919081815260200182805461020a90611581565b80156102575780601f1061022c57610100808354040283529160200191610257565b820191906000526020600020905b81548152906001019060200180831161023a57829003601f168201915b5050505050955084805461026a90611581565b80601f016020809104026020016040519081016040528092919081815260200182805461029690611581565b80156102e35780601f106102b8576101008083540402835291602001916102e3565b820191906000526020600020905b8154815290600101906020018083116102c657829003601f168201915b505050505094508380546102f690611581565b80601f016020809104026020016040519081016040528092919081815260200182805461032290611581565b801561036f5780601f106103445761010080835404028352916020019161036f565b820191906000526020600020905b81548152906001019060200180831161035257829003601f168201915b5050505050935082805461038290611581565b80601f01602080910402602001604051908101604052809291908181526020018280546103ae90611581565b80156103fb5780601f106103d0576101008083540402835291602001916103fb565b820191906000526020600020905b8154815290600101906020018083116103de57829003601f168201915b505050505092509650965096509650965096505091939550919395565b60008080549050905090565b60006040518060c001604052808681526020018581526020018481526020018381526020013373ffffffffffffffffffffffffffffffffffffffff16815260200142815250908060018154018082558091505060019003906000526020600020906006020160009091909190915060008201518160000190816104a7919061175e565b5060208201518160010190816104bd919061175e565b5060408201518160020190816104d3919061175e565b5060608201518160030190816104e9919061175e565b5060808201518160040160006101000a81548173ffffffffffffffffffffffffffffffffffffffff021916908373ffffffffffffffffffffffffffffffffffffffff16021790555060a0820151816005015550503373ffffffffffffffffffffffffffffffffffffffff166001600080549050610566919061185f565b7f993bb6e064cfed5f1c7818716479773a9d38ca6a21c60fe242c26f831a8e7120868686864260405161059d959493929190611893565b60405180910390a350505050565b600081815481106105bb57600080fd5b90600052602060002090600602016000915090508060000180546105de90611581565b80601f016020809104026020016040519081016040528092919081815260200182805461060a90611581565b80156106575780601f1061062c57610100808354040283529160200191610657565b820191906000526020600020905b81548152906001019060200180831161063a57829003601f168201915b50505050509080600101805461066c90611581565b80601f016020809104026020016040519081016040528092919081815260200182805461069890611581565b80156106e55780601f106106ba576101008083540402835291602001916106e5565b820191906000526020600020905b8154815290600101906020018083116106c857829003601f168201915b5050505050908060020180546106fa90611581565b80601f016020809104026020016040519081016040528092919081815260200182805461072690611581565b80156107735780601f1061074857610100808354040283529160200191610773565b820191906000526020600020905b81548152906001019060200180831161075657829003601f168201915b50505050509080600301805461078890611581565b80601f01602080910402602001604051908101604052809291908181526020018280546107b490611581565b80156108015780601f106107d657610100808354040283529160200191610801565b820191906000526020600020905b8154815290600101906020018083116107e457829003601f168201915b5050505050908060040160009054906101000a900473ffffffffffffffffffffffffffffffffffffffff16908060050154905086565b6060806060806060806000808054905090508067ffffffffffffffff81111561086357610862610fa2565b5b60405190808252806020026020018201604052801561089657816020015b60608152602001906001900390816108815790505b5096508067ffffffffffffffff8111156108b3576108b2610fa2565b5b6040519080825280602002602001820160405280156108e657816020015b60608152602001906001900390816108d15790505b5095508067ffffffffffffffff81111561090357610902610fa2565b5b60405190808252806020026020018201604052801561093657816020015b60608152602001906001900390816109215790505b5094508067ffffffffffffffff81111561095357610952610fa2565b5b60405190808252806020026020018201604052801561098657816020015b60608152602001906001900390816109715790505b5093508067ffffffffffffffff8111156109a3576109a2610fa2565b5b6040519080825280602002602001820160405280156109d15781602001602082028036833780820191505090505b5092508067ffffffffffffffff8111156109ee576109ed610fa2565b5b604051908082528060200260200182016040528015610a1c5781602001602082028036833780820191505090505b50915060005b81811015610d9f576000808281548110610a3f57610a3e611523565b5b90600052602060002090600602019050806000018054610a5e90611581565b80601f0160208091040260200160405190810160405280929190818152602001828054610a8a90611581565b8015610ad75780601f10610aac57610100808354040283529160200191610ad7565b820191906000526020600020905b815481529060010190602001808311610aba57829003601f168201915b5050505050898381518110610aef57610aee611523565b5b6020026020010181905250806001018054610b0990611581565b80601f0160208091040260200160405190810160405280929190818152602001828054610b3590611581565b8015610b825780601f10610b5757610100808354040283529160200191610b82565b820191906000526020600020905b815481529060010190602001808311610b6557829003601f168201915b5050505050888381518110610b9a57610b99611523565b5b6020026020010181905250806002018054610bb490611581565b80601f0160208091040260200160405190810160405280929190818152602001828054610be090611581565b8015610c2d5780601f10610c0257610100808354040283529160200191610c2d565b820191906000526020600020905b815481529060010190602001808311610c1057829003601f168201915b5050505050878381518110610c4557610c44611523565b5b6020026020010181905250806003018054610c5f90611581565b80601f0160208091040260200160405190810160405280929190818152602001828054610c8b90611581565b8015610cd85780601f10610cad57610100808354040283529160200191610cd8565b820191906000526020600020905b815481529060010190602001808311610cbb57829003601f168201915b5050505050868381518110610cf057610cef611523565b5b60200260200101819052508060040160009054906101000a900473ffffffffffffffffffffffffffffffffffffffff16858381518110610d3357610d32611523565b5b602002602001019073ffffffffffffffffffffffffffffffffffffffff16908173ffffffffffffffffffffffffffffffffffffffff16815250508060050154848381518110610d8557610d84611523565b5b602002602001018181525050508080600101915050610a22565b5050909192939495565b6000604051905090565b600080fd5b600080fd5b6000819050919050565b610dd081610dbd565b8114610ddb57600080fd5b50565b600081359050610ded81610dc7565b92915050565b600060208284031215610e0957610e08610db3565b5b6000610e1784828501610dde565b91505092915050565b600081519050919050565b600082825260208201905092915050565b60005b83811015610e5a578082015181840152602081019050610e3f565b60008484015250505050565b6000601f19601f8301169050919050565b6000610e8282610e20565b610e8c8185610e2b565b9350610e9c818560208601610e3c565b610ea581610e66565b840191505092915050565b600073ffffffffffffffffffffffffffffffffffffffff82169050919050565b6000610edb82610eb0565b9050919050565b610eeb81610ed0565b82525050565b610efa81610dbd565b82525050565b600060c0820190508181036000830152610f1a8189610e77565b90508181036020830152610f2e8188610e77565b90508181036040830152610f428187610e77565b90508181036060830152610f568186610e77565b9050610f656080830185610ee2565b610f7260a0830184610ef1565b979650505050505050565b6000602082019050610f926000830184610ef1565b92915050565b600080fd5b600080fd5b7f4e487b7100000000000000000000000000000000000000000000000000000000600052604160045260246000fd5b610fda82610e66565b810181811067ffffffffffffffff82111715610ff957610ff8610fa2565b5b80604052505050565b600061100c610da9565b90506110188282610fd1565b919050565b600067ffffffffffffffff82111561103857611037610fa2565b5b61104182610e66565b9050602081019050919050565b82818337600083830152505050565b600061107061106b8461101d565b611002565b90508281526020810184848401111561108c5761108b610f9d565b5b61109784828561104e565b509392505050565b600082601f8301126110b4576110b3610f98565b5b81356110c484826020860161105d565b91505092915050565b600080600080608085870312156110e7576110e6610db3565b5b600085013567ffffffffffffffff81111561110557611104610db8565b5b6111118782880161109f565b945050602085013567ffffffffffffffff81111561113257611131610db8565b5b61113e8782880161109f565b935050604085013567ffffffffffffffff81111561115f5761115e610db8565b5b61116b8782880161109f565b925050606085013567ffffffffffffffff81111561118c5761118b610db8565b5b6111988782880161109f565b91505092959194509250565b600081519050919050565b600082825260208201905092915050565b6000819050602082019050919050565b600082825260208201905092915050565b60006111ec82610e20565b6111f681856111d0565b9350611206818560208601610e3c565b61120f81610e66565b840191505092915050565b600061122683836111e1565b905092915050565b6000602082019050919050565b6000611246826111a4565b61125081856111af565b935083602082028501611262856111c0565b8060005b8581101561129e578484038952815161127f858261121a565b945061128a8361122e565b925060208a01995050600181019050611266565b50829750879550505050505092915050565b600081519050919050565b600082825260208201905092915050565b6000819050602082019050919050565b6112e581610ed0565b82525050565b60006112f783836112dc565b60208301905092915050565b6000602082019050919050565b600061131b826112b0565b61132581856112bb565b9350611330836112cc565b8060005b8381101561136157815161134888826112eb565b975061135383611303565b925050600181019050611334565b5085935050505092915050565b600081519050919050565b600082825260208201905092915050565b6000819050602082019050919050565b6113a381610dbd565b82525050565b60006113b5838361139a565b60208301905092915050565b6000602082019050919050565b60006113d98261136e565b6113e38185611379565b93506113ee8361138a565b8060005b8381101561141f57815161140688826113a9565b9750611411836113c1565b9250506001810190506113f2565b5085935050505092915050565b600060c0820190508181036000830152611446818961123b565b9050818103602083015261145a818861123b565b9050818103604083015261146e818761123b565b90508181036060830152611482818661123b565b905081810360808301526114968185611310565b905081810360a08301526114aa81846113ce565b9050979650505050505050565b7f496e76616c69642066696c6520696e6465780000000000000000000000000000600082015250565b60006114ed601283610e2b565b91506114f8826114b7565b602082019050919050565b6000602082019050818103600083015261151c816114e0565b9050919050565b7f4e487b7100000000000000000000000000000000000000000000000000000000600052603260045260246000fd5b7f4e487b7100000000000000000000000000000000000000000000000000000000600052602260045260246000fd5b6000600282049050600182168061159957607f821691505b6020821081036115ac576115ab611552565b5b50919050565b60008190508160005260206000209050919050565b60006020601f8301049050919050565b600082821b905092915050565b6000600883026116147fffffffffffffffffffffffffffffffffffffffffffffffffffffffffffffffff826115d7565b61161e86836115d7565b95508019841693508086168417925050509392505050565b6000819050919050565b600061165b61165661165184610dbd565b611636565b610dbd565b9050919050565b6000819050919050565b61167583611640565b61168961168182611662565b8484546115e4565b825550505050565b600090565b61169e611691565b6116a981848461166c565b505050565b5b818110156116cd576116c2600082611696565b6001810190506116af565b5050565b601f821115611712576116e3816115b2565b6116ec846115c7565b810160208510156116fb578190505b61170f611707856115c7565b8301826116ae565b50505b505050565b600082821c905092915050565b600061173560001984600802611717565b1980831691505092915050565b600061174e8383611724565b9150826002028217905092915050565b61176782610e20565b67ffffffffffffffff8111156117805761177f610fa2565b5b61178a8254611581565b6117958282856116d1565b600060209050601f8311600181146117c857600084156117b6578287015190505b6117c08582611742565b865550611828565b601f1984166117d6866115b2565b60005b828110156117fe578489015182556001820191506020850194506020810190506117d9565b8683101561181b5784890151611817601f891682611724565b8355505b6001600288020188555050505b505050505050565b7f4e487b7100000000000000000000000000000000000000000000000000000000600052601160045260246000fd5b600061186a82610dbd565b915061187583610dbd565b925082820390508181111561188d5761188c611830565b5b92915050565b600060a08201905081810360008301526118ad8188610e77565b905081810360208301526118c18187610e77565b905081810360408301526118d58186610e77565b905081810360608301526118e98185610e77565b90506118f86080830184610ef1565b969550505050505056fea2646970667358221220300a0131d1622d30c6383452b5e90207317283b83e7170a92fa24ce7d9a078ae64736f6c634300081c0033",
  "linkReferences": {},
  "deployedLinkReferences": {}
}